{
  "contractName": "Event",
  "abi": [
    {
      "constant": true,
      "inputs": [],
      "name": "name",
      "outputs": [
        {
          "name": "",
          "type": "string"
        }
      ],
      "payable": false,
      "stateMutability": "view",
      "type": "function"
    },
    {
      "constant": true,
      "inputs": [],
      "name": "date",
      "outputs": [
        {
          "name": "",
          "type": "uint64"
        }
      ],
      "payable": false,
      "stateMutability": "view",
      "type": "function"
    },
    {
      "constant": false,
      "inputs": [
        {
          "name": "newName",
          "type": "string"
        }
      ],
      "name": "changeName",
      "outputs": [],
      "payable": false,
      "stateMutability": "nonpayable",
      "type": "function"
    },
    {
      "constant": true,
      "inputs": [],
      "name": "resell",
      "outputs": [
        {
          "name": "",
          "type": "bool"
        }
      ],
      "payable": false,
      "stateMutability": "view",
      "type": "function"
    },
    {
      "constant": false,
      "inputs": [
        {
          "name": "newPlace",
          "type": "string"
        }
      ],
      "name": "changePlace",
      "outputs": [],
      "payable": false,
      "stateMutability": "nonpayable",
      "type": "function"
    },
    {
      "constant": true,
      "inputs": [],
      "name": "place",
      "outputs": [
        {
          "name": "",
          "type": "string"
        }
      ],
      "payable": false,
      "stateMutability": "view",
      "type": "function"
    },
    {
      "constant": true,
      "inputs": [],
      "name": "nSeat",
      "outputs": [
        {
          "name": "",
          "type": "uint32"
        }
      ],
      "payable": false,
      "stateMutability": "view",
      "type": "function"
    },
    {
      "constant": false,
      "inputs": [
        {
          "name": "newDate",
          "type": "uint64"
        }
      ],
      "name": "changeDate",
      "outputs": [],
      "payable": false,
      "stateMutability": "nonpayable",
      "type": "function"
    },
    {
      "constant": false,
      "inputs": [
        {
          "name": "buyer",
          "type": "bytes32"
        },
        {
          "name": "seat",
          "type": "uint32"
        },
        {
          "name": "delegated",
          "type": "bytes32"
        }
      ],
      "name": "buyTicket",
      "outputs": [],
      "payable": false,
      "stateMutability": "nonpayable",
      "type": "function"
    },
    {
      "constant": true,
      "inputs": [],
      "name": "delegate",
      "outputs": [
        {
          "name": "",
          "type": "bool"
        }
      ],
      "payable": false,
      "stateMutability": "view",
      "type": "function"
    },
    {
      "constant": false,
      "inputs": [
        {
          "name": "buyer",
          "type": "bytes32"
        },
        {
          "name": "seat",
          "type": "uint32"
        }
      ],
      "name": "resellTicket",
      "outputs": [],
      "payable": false,
      "stateMutability": "nonpayable",
      "type": "function"
    },
    {
      "constant": true,
      "inputs": [
        {
          "name": "",
          "type": "uint32"
        }
      ],
      "name": "tickets",
      "outputs": [
        {
          "name": "hashID",
          "type": "bytes32"
        },
        {
          "name": "hashDelegate",
          "type": "bytes32"
        }
      ],
      "payable": false,
      "stateMutability": "view",
      "type": "function"
    },
    {
      "inputs": [
        {
          "name": "_name",
          "type": "string"
        },
        {
          "name": "_place",
          "type": "string"
        },
        {
          "name": "_date",
          "type": "uint64"
        },
        {
          "name": "_nSeat",
          "type": "uint32"
        },
        {
          "name": "_resell",
          "type": "bool"
        },
        {
          "name": "_delegate",
          "type": "bool"
        }
      ],
      "payable": false,
      "stateMutability": "nonpayable",
      "type": "constructor"
    }
  ],
  "bytecode": "0x6060604052341561000f57600080fd5b604051610ca0380380610ca0833981016040528080518201919060200180518201919060200180519060200190919080519060200190919080519060200190919080519060200190919050508560029080519060200190610071929190610153565b508460039080519060200190610088929190610153565b5083600160046101000a81548167ffffffffffffffff021916908367ffffffffffffffff16021790555082600160006101000a81548163ffffffff021916908363ffffffff16021790555081600460146101000a81548160ff02191690831515021790555080600460156101000a81548160ff02191690831515021790555033600460006101000a81548173ffffffffffffffffffffffffffffffffffffffff021916908373ffffffffffffffffffffffffffffffffffffffff1602179055505050505050506101f8565b828054600181600116156101000203166002900490600052602060002090601f016020900481019282601f1061019457805160ff19168380011785556101c2565b828001600101855582156101c2579182015b828111156101c15782518255916020019190600101906101a6565b5b5090506101cf91906101d3565b5090565b6101f591905b808211156101f15760008160009055506001016101d9565b5090565b90565b610a99806102076000396000f3006060604052600436106100ba576000357c0100000000000000000000000000000000000000000000000000000000900463ffffffff16806306fdde03146100bf578063323046b11461014d5780635353a2d81461018a57806371c58ca8146101e75780637c12e93f1461021457806393cca91814610271578063a1df9fad146102ff578063b45679b314610334578063b835120114610361578063c89e4361146103a4578063f89b74d3146103d1578063ffd4b4cb14610407575b600080fd5b34156100ca57600080fd5b6100d261045b565b6040518080602001828103825283818151815260200191508051906020019080838360005b838110156101125780820151818401526020810190506100f7565b50505050905090810190601f16801561013f5780820380516001836020036101000a031916815260200191505b509250505060405180910390f35b341561015857600080fd5b6101606104f9565b604051808267ffffffffffffffff1667ffffffffffffffff16815260200191505060405180910390f35b341561019557600080fd5b6101e5600480803590602001908201803590602001908080601f01602080910402602001604051908101604052809392919081815260200183838082843782019150505050505091905050610513565b005b34156101f257600080fd5b6101fa610581565b604051808215151515815260200191505060405180910390f35b341561021f57600080fd5b61026f600480803590602001908201803590602001908080601f01602080910402602001604051908101604052809392919081815260200183838082843782019150505050505091905050610594565b005b341561027c57600080fd5b610284610602565b6040518080602001828103825283818151815260200191508051906020019080838360005b838110156102c45780820151818401526020810190506102a9565b50505050905090810190601f1680156102f15780820380516001836020036101000a031916815260200191505b509250505060405180910390f35b341561030a57600080fd5b6103126106a0565b604051808263ffffffff1663ffffffff16815260200191505060405180910390f35b341561033f57600080fd5b61035f600480803567ffffffffffffffff169060200190919050506106b6565b005b341561036c57600080fd5b6103a260048080356000191690602001909190803563ffffffff1690602001909190803560001916906020019091905050610736565b005b34156103af57600080fd5b6103b7610867565b604051808215151515815260200191505060405180910390f35b34156103dc57600080fd5b61040560048080356000191690602001909190803563ffffffff1690602001909190505061087a565b005b341561041257600080fd5b61042e600480803563ffffffff16906020019091905050610984565b60405180836000191660001916815260200182600019166000191681526020019250505060405180910390f35b60028054600181600116156101000203166002900480601f0160208091040260200160405190810160405280929190818152602001828054600181600116156101000203166002900480156104f15780601f106104c6576101008083540402835291602001916104f1565b820191906000526020600020905b8154815290600101906020018083116104d457829003601f168201915b505050505081565b600160049054906101000a900467ffffffffffffffff1681565b42600160049054906101000a900467ffffffffffffffff1667ffffffffffffffff1610151561054157600080fd5b3373ffffffffffffffffffffffffffffffffffffffff16600460009054906101000a90505050806002908051906020019061057d9291906109a8565b5050565b600460149054906101000a900460ff1681565b42600160049054906101000a900467ffffffffffffffff1667ffffffffffffffff161015156105c257600080fd5b3373ffffffffffffffffffffffffffffffffffffffff16600460009054906101000a9050505080600390805190602001906105fe9291906109a8565b5050565b60038054600181600116156101000203166002900480601f0160208091040260200160405190810160405280929190818152602001828054600181600116156101000203166002900480156106985780601f1061066d57610100808354040283529160200191610698565b820191906000526020600020905b81548152906001019060200180831161067b57829003601f168201915b505050505081565b600160009054906101000a900463ffffffff1681565b42600160049054906101000a900467ffffffffffffffff1667ffffffffffffffff161015156106e457600080fd5b3373ffffffffffffffffffffffffffffffffffffffff16600460009054906101000a9050505080600160046101000a81548167ffffffffffffffff021916908367ffffffffffffffff16021790555050565b61073e610a28565b81600460159054906101000a900460ff161515600060010282600019161415151415151561076b57600080fd5b42600160049054906101000a900467ffffffffffffffff1667ffffffffffffffff1610151561079957600080fd5b3373ffffffffffffffffffffffffffffffffffffffff16600460009054906101000a9050505060006001026000808663ffffffff1663ffffffff16815260200190815260200160002060000154600019161415156107f657600080fd5b84826000019060001916908160001916815250508282602001906000191690816000191681525050816000808663ffffffff1663ffffffff16815260200190815260200160002060008201518160000190600019169055602082015181600101906000191690559050505050505050565b600460159054906101000a900460ff1681565b600460149054906101000a900460ff16151561089557600080fd5b42600160049054906101000a900467ffffffffffffffff1667ffffffffffffffff161015156108c357600080fd5b3373ffffffffffffffffffffffffffffffffffffffff16600460009054906101000a9050505060006001026000808363ffffffff1663ffffffff16815260200190815260200160002060000154600019161415801561094b575081600019166000808363ffffffff1663ffffffff168152602001908152602001600020600001546000191614155b151561095657600080fd5b816000808363ffffffff1663ffffffff16815260200190815260200160002060000181600019169055505050565b60006020528060005260406000206000915090508060000154908060010154905082565b828054600181600116156101000203166002900490600052602060002090601f016020900481019282601f106109e957805160ff1916838001178555610a17565b82800160010185558215610a17579182015b82811115610a165782518255916020019190600101906109fb565b5b509050610a249190610a48565b5090565b604080519081016040528060008019168152602001600080191681525090565b610a6a91905b80821115610a66576000816000905550600101610a4e565b5090565b905600a165627a7a723058205644974446d270c3659842a88739e251268339b628748fd9c3fe16d7e88809420029",
  "source": "pragma solidity ^0.4.18;\n\n/**\n * The Event contract\n*/\n\ncontract Event {\n\n  struct Ticket {\n    bytes32 hashID;\n    bytes32 hashDelegate;\n  }\n\n  mapping (uint32 => Ticket) public tickets;\n  uint32 public nSeat;\n  uint64 public date;\n  string public name;\n  string public place;\n  address owner;\n\n  // Options\n  bool public resell;\n  bool public delegate;\n\n  /* Constructor */\n  function Event (string _name,  string _place,  uint64 _date,\n                  uint32 _nSeat, bool   _resell, bool   _delegate) \n  public {\n    name     = _name;\n    place    = _place;\n    date     = _date;\n    nSeat    = _nSeat;\n    resell   = _resell;\n    delegate = _delegate;\n    owner    = msg.sender;\n  }    \n\n  /* Operations */ \n  function buyTicket(bytes32 buyer, uint32 seat, bytes32 delegated) \n  public canDelegate(delegated) onTime() ownerOnly(){\n    require(tickets[seat].hashID == 0);\n    Ticket memory t;\n    t.hashID       = buyer; \n    t.hashDelegate = delegated;\n    tickets[seat]  = t;\n  }\n\n  function resellTicket(bytes32 buyer, uint32 seat) \n  public canResell() onTime() ownerOnly(){\n    require(tickets[seat].hashID != 0 && tickets[seat].hashID != buyer);\n    tickets[seat].hashID = buyer;\n  }\n  \n\n  /* Setters */\n  function changeDate(uint64 newDate) public onTime() ownerOnly(){\n    date = newDate;\n  }\n\n  function changeName (string newName) public onTime() ownerOnly(){\n    name = newName;\n  }\n\n  function changePlace (string newPlace) public onTime() ownerOnly(){\n    place = newPlace;\n  }\n\n\n  /* Modifiers */\n  modifier canDelegate(bytes32 delegated) {\n    require( (delegated == 0) != delegate);\n    _;\n  }\n\n  modifier canResell(){\n    require(resell);\n    _;\n  }\n\n  modifier onTime(){\n    require(date < now);\n    _;\n  }\n\n  modifier ownerOnly() {\n    owner == msg.sender;\n    _;\n  }\n\n}\n\ncontract EventPromoter {\n  mapping (address => Event) public events;\n  address owner;\n  string public hola;\n\n  function EventPromoter(string h) public{\n    owner = msg.sender;\n    hola = h;\n  }\n\n  function createEvent (string name,  string place,  uint64 date,\n                        uint32 nSeat, bool   resell, bool   delegate) \n  public ownerOnly() returns (address){\n    Event e = new Event(name, place, date, nSeat, resell, delegate);\n    events[address(e)] = e;\n    return address(e);\n  }\n\n  function deleteEvent (address addr) public ownerOnly(){\n    delete events[addr];\n  }\n\n  modifier ownerOnly() {\n    owner == msg.sender;\n    _;\n  }\n}\n\ncontract Admin {\n  mapping (address => EventPromoter) public promoters;\n  address public owner;\n\n  function Admin() public {\n    owner = msg.sender;\n  }\n  function createPromoter(string h) public ownerOnly() returns(address){\n    EventPromoter p = new EventPromoter(h);\n    promoters[address(p)] = p;\n    return address(p);\n\n  }\n \n  modifier ownerOnly() {\n    owner == msg.sender;\n    _;\n  } \n\n}\n\n\n",
  "sourcePath": "/Users/carlosspaggiari/Api/contracts/Event.sol",
  "compiler": {
    "name": "solc",
    "version": "0.4.18+commit.9cf6e910.Emscripten.clang"
  },
  "schemaVersion": "1.0.1",
  "updatedAt": "2018-01-04T20:37:49.227Z"
}