{
  "contractName": "Event",
  "abi": [
    {
      "constant": true,
      "inputs": [],
      "name": "name",
      "outputs": [
        {
          "name": "",
          "type": "string"
        }
      ],
      "payable": false,
      "stateMutability": "view",
      "type": "function"
    },
    {
      "constant": true,
      "inputs": [],
      "name": "date",
      "outputs": [
        {
          "name": "",
          "type": "uint64"
        }
      ],
      "payable": false,
      "stateMutability": "view",
      "type": "function"
    },
    {
      "constant": true,
      "inputs": [],
      "name": "resell",
      "outputs": [
        {
          "name": "",
          "type": "bool"
        }
      ],
      "payable": false,
      "stateMutability": "view",
      "type": "function"
    },
    {
      "constant": true,
      "inputs": [],
      "name": "place",
      "outputs": [
        {
          "name": "",
          "type": "string"
        }
      ],
      "payable": false,
      "stateMutability": "view",
      "type": "function"
    },
    {
      "constant": true,
      "inputs": [],
      "name": "nSeat",
      "outputs": [
        {
          "name": "",
          "type": "uint32"
        }
      ],
      "payable": false,
      "stateMutability": "view",
      "type": "function"
    },
    {
      "constant": false,
      "inputs": [
        {
          "name": "newDate",
          "type": "uint64"
        }
      ],
      "name": "changeDate",
      "outputs": [],
      "payable": false,
      "stateMutability": "nonpayable",
      "type": "function"
    },
    {
      "constant": false,
      "inputs": [
        {
          "name": "owner",
          "type": "bytes32"
        },
        {
          "name": "seat",
          "type": "uint32"
        },
        {
          "name": "delegated",
          "type": "bytes32"
        }
      ],
      "name": "buyTicket",
      "outputs": [],
      "payable": false,
      "stateMutability": "nonpayable",
      "type": "function"
    },
    {
      "constant": true,
      "inputs": [],
      "name": "delegate",
      "outputs": [
        {
          "name": "",
          "type": "bool"
        }
      ],
      "payable": false,
      "stateMutability": "view",
      "type": "function"
    },
    {
      "constant": false,
      "inputs": [
        {
          "name": "newOwner",
          "type": "bytes32"
        },
        {
          "name": "seat",
          "type": "uint32"
        }
      ],
      "name": "resellTicket",
      "outputs": [],
      "payable": false,
      "stateMutability": "nonpayable",
      "type": "function"
    },
    {
      "constant": true,
      "inputs": [
        {
          "name": "",
          "type": "uint32"
        }
      ],
      "name": "tickets",
      "outputs": [
        {
          "name": "hashID",
          "type": "bytes32"
        },
        {
          "name": "hashDelegate",
          "type": "bytes32"
        }
      ],
      "payable": false,
      "stateMutability": "view",
      "type": "function"
    },
    {
      "inputs": [
        {
          "name": "_name",
          "type": "string"
        },
        {
          "name": "_place",
          "type": "string"
        },
        {
          "name": "_date",
          "type": "uint64"
        },
        {
          "name": "_nSeat",
          "type": "uint32"
        },
        {
          "name": "_resell",
          "type": "bool"
        },
        {
          "name": "_delegate",
          "type": "bool"
        }
      ],
      "payable": false,
      "stateMutability": "nonpayable",
      "type": "constructor"
    }
  ],
  "bytecode": "0x6060604052341561000f57600080fd5b60405161096e38038061096e833981016040528080518201919060200180518201919060200180519060200190919080519060200190919080519060200190919080519060200190919050508560029080519060200190610071929190610112565b508460039080519060200190610088929190610112565b5083600160046101000a81548167ffffffffffffffff021916908367ffffffffffffffff16021790555082600160006101000a81548163ffffffff021916908363ffffffff16021790555081600460006101000a81548160ff02191690831515021790555080600460016101000a81548160ff0219169083151502179055505050505050506101b7565b828054600181600116156101000203166002900490600052602060002090601f016020900481019282601f1061015357805160ff1916838001178555610181565b82800160010185558215610181579182015b82811115610180578251825591602001919060010190610165565b5b50905061018e9190610192565b5090565b6101b491905b808211156101b0576000816000905550600101610198565b5090565b90565b6107a8806101c66000396000f3006060604052600436106100a4576000357c0100000000000000000000000000000000000000000000000000000000900463ffffffff16806306fdde03146100a9578063323046b11461013757806371c58ca81461017457806393cca918146101a1578063a1df9fad1461022f578063b45679b314610264578063b835120114610291578063c89e4361146102d4578063f89b74d314610301578063ffd4b4cb14610337575b600080fd5b34156100b457600080fd5b6100bc61038b565b6040518080602001828103825283818151815260200191508051906020019080838360005b838110156100fc5780820151818401526020810190506100e1565b50505050905090810190601f1680156101295780820380516001836020036101000a031916815260200191505b509250505060405180910390f35b341561014257600080fd5b61014a610429565b604051808267ffffffffffffffff1667ffffffffffffffff16815260200191505060405180910390f35b341561017f57600080fd5b610187610443565b604051808215151515815260200191505060405180910390f35b34156101ac57600080fd5b6101b4610456565b6040518080602001828103825283818151815260200191508051906020019080838360005b838110156101f45780820151818401526020810190506101d9565b50505050905090810190601f1680156102215780820380516001836020036101000a031916815260200191505b509250505060405180910390f35b341561023a57600080fd5b6102426104f4565b604051808263ffffffff1663ffffffff16815260200191505060405180910390f35b341561026f57600080fd5b61028f600480803567ffffffffffffffff1690602001909190505061050a565b005b341561029c57600080fd5b6102d260048080356000191690602001909190803563ffffffff1690602001909190803560001916906020019091905050610564565b005b34156102df57600080fd5b6102e7610641565b604051808215151515815260200191505060405180910390f35b341561030c57600080fd5b61033560048080356000191690602001909190803563ffffffff16906020019091905050610654565b005b341561034257600080fd5b61035e600480803563ffffffff16906020019091905050610738565b60405180836000191660001916815260200182600019166000191681526020019250505060405180910390f35b60028054600181600116156101000203166002900480601f0160208091040260200160405190810160405280929190818152602001828054600181600116156101000203166002900480156104215780601f106103f657610100808354040283529160200191610421565b820191906000526020600020905b81548152906001019060200180831161040457829003601f168201915b505050505081565b600160049054906101000a900467ffffffffffffffff1681565b600460009054906101000a900460ff1681565b60038054600181600116156101000203166002900480601f0160208091040260200160405190810160405280929190818152602001828054600181600116156101000203166002900480156104ec5780601f106104c1576101008083540402835291602001916104ec565b820191906000526020600020905b8154815290600101906020018083116104cf57829003601f168201915b505050505081565b600160009054906101000a900463ffffffff1681565b42600160049054906101000a900467ffffffffffffffff1667ffffffffffffffff1610151561053857600080fd5b80600160046101000a81548167ffffffffffffffff021916908367ffffffffffffffff16021790555050565b61056c61075c565b81600460019054906101000a900460ff161515600060010282600019161415151415151561059957600080fd5b60006001026000808663ffffffff1663ffffffff16815260200190815260200160002060000154600019161415156105d057600080fd5b84826000019060001916908160001916815250508282602001906000191690816000191681525050816000808663ffffffff1663ffffffff16815260200190815260200160002060008201518160000190600019169055602082015181600101906000191690559050505050505050565b600460019054906101000a900460ff1681565b600460009054906101000a900460ff16151561066f57600080fd5b42600160049054906101000a900467ffffffffffffffff1667ffffffffffffffff1610151561069d57600080fd5b60006001026000808363ffffffff1663ffffffff1681526020019081526020016000206000015460001916141580156106ff575081600019166000808363ffffffff1663ffffffff168152602001908152602001600020600001546000191614155b151561070a57600080fd5b816000808363ffffffff1663ffffffff16815260200190815260200160002060000181600019169055505050565b60006020528060005260406000206000915090508060000154908060010154905082565b6040805190810160405280600080191681526020016000801916815250905600a165627a7a723058202852fdc188397b06a62322c88d35fa093c96985d514c912a505cf68822f425070029",
  "source": "pragma solidity ^0.4.18;\n\n/**\n * The Event contract\n*/\n\ncontract Event {\n\n  struct Ticket {\n    bytes32 hashID;\n    bytes32 hashDelegate;\n  }\n  \n\n  mapping (uint32 => Ticket) public tickets;\n  uint32 public nSeat;\n  uint64 public date;\n  string public name;\n  string public place;\n\n  // Options\n  bool public resell;\n  bool public delegate;\n\n  function Event ( string _name,  string _place,  uint64 _date,\n                   uint32 _nSeat, bool   _resell, bool   _delegate) \n  public {\n    name     = _name;\n    place    = _place;\n    date     = _date;\n    nSeat    = _nSeat;\n    resell   = _resell;\n    delegate = _delegate;\n  }  \n\n  modifier canDelegate(bytes32 delegated) {\n    require( (delegated == 0) != delegate);\n    _;\n  }\n\n  modifier canResell(){\n    require(resell);\n    _;\n  }\n\n  modifier onTime(){\n    require(date < now);\n    _;\n  }\n\n  function buyTicket(bytes32 owner, uint32 seat, bytes32 delegated) \n  public canDelegate(delegated) {\n    require(tickets[seat].hashID == 0);\n    Ticket memory t;\n    t.hashID       = owner; \n    t.hashDelegate = delegated;\n    tickets[seat]  = t;\n  }\n\n  function resellTicket(bytes32 newOwner, uint32 seat) \n  public canResell() onTime(){\n    require(tickets[seat].hashID != 0 && tickets[seat].hashID != newOwner);\n    tickets[seat].hashID = newOwner;\n  }\n\n  function changeDate(uint64 newDate) public onTime(){\n    date = newDate;\n  }\n}\n\n",
  "sourcePath": "/home/alexander/Escritorio/SmartTicket/contracts/Event.sol",
  "compiler": {
    "name": "solc",
    "version": "0.4.18+commit.9cf6e910.Emscripten.clang"
  },
  "schemaVersion": "1.0.1",
  "updatedAt": "2018-01-04T17:49:32.227Z"
}