{
  "contractName": "MovieTheater",
  "abi": [
    {
      "constant": true,
      "inputs": [
        {
          "name": "",
          "type": "uint8"
        },
        {
          "name": "",
          "type": "uint256"
        }
      ],
      "name": "eventsInTheater",
      "outputs": [
        {
          "name": "",
          "type": "address"
        }
      ],
      "payable": false,
      "stateMutability": "view",
      "type": "function"
    },
    {
      "constant": true,
      "inputs": [
        {
          "name": "theaterId",
          "type": "uint8"
        }
      ],
      "name": "_length",
      "outputs": [
        {
          "name": "",
          "type": "uint256"
        }
      ],
      "payable": false,
      "stateMutability": "view",
      "type": "function"
    },
    {
      "constant": true,
      "inputs": [],
      "name": "nTheater",
      "outputs": [
        {
          "name": "",
          "type": "uint8"
        }
      ],
      "payable": false,
      "stateMutability": "view",
      "type": "function"
    },
    {
      "constant": false,
      "inputs": [
        {
          "name": "_nTheater",
          "type": "uint8"
        }
      ],
      "name": "setNumberOfTheaters",
      "outputs": [],
      "payable": false,
      "stateMutability": "nonpayable",
      "type": "function"
    },
    {
      "constant": false,
      "inputs": [
        {
          "name": "theaterId",
          "type": "uint8"
        },
        {
          "name": "ticketPrice",
          "type": "uint256"
        },
        {
          "name": "nTicket",
          "type": "uint8"
        },
        {
          "name": "start",
          "type": "uint256"
        },
        {
          "name": "end",
          "type": "uint256"
        }
      ],
      "name": "createEvent",
      "outputs": [
        {
          "name": "",
          "type": "address"
        }
      ],
      "payable": false,
      "stateMutability": "nonpayable",
      "type": "function"
    },
    {
      "constant": true,
      "inputs": [
        {
          "name": "theaterId",
          "type": "uint8"
        }
      ],
      "name": "getEventsInTheater",
      "outputs": [
        {
          "name": "",
          "type": "address[]"
        }
      ],
      "payable": false,
      "stateMutability": "view",
      "type": "function"
    },
    {
      "constant": false,
      "inputs": [
        {
          "name": "theaterId",
          "type": "uint8"
        }
      ],
      "name": "clearTheater",
      "outputs": [],
      "payable": false,
      "stateMutability": "nonpayable",
      "type": "function"
    },
    {
      "inputs": [],
      "payable": false,
      "stateMutability": "nonpayable",
      "type": "constructor"
    }
  ],
  "bytecode": "0x6060604052341561000f57600080fd5b336001806101000a81548173ffffffffffffffffffffffffffffffffffffffff021916908373ffffffffffffffffffffffffffffffffffffffff160217905550611bc68061005e6000396000f300606060405260043610610083576000357c0100000000000000000000000000000000000000000000000000000000900463ffffffff1680630d57ee8b146100885780631e2f3bdc146100f75780632468867614610131578063d84db5dd14610160578063f5ec561614610186578063f600ab5414610213578063fdc258761461028e575b600080fd5b341561009357600080fd5b6100b5600480803560ff169060200190919080359060200190919050506102b4565b604051808273ffffffffffffffffffffffffffffffffffffffff1673ffffffffffffffffffffffffffffffffffffffff16815260200191505060405180910390f35b341561010257600080fd5b61011b600480803560ff16906020019091905050610302565b6040518082815260200191505060405180910390f35b341561013c57600080fd5b61014461035f565b604051808260ff1660ff16815260200191505060405180910390f35b341561016b57600080fd5b610184600480803560ff16906020019091905050610372565b005b341561019157600080fd5b6101d1600480803560ff1690602001909190803590602001909190803560ff1690602001909190803590602001909190803590602001909190505061040e565b604051808273ffffffffffffffffffffffffffffffffffffffff1673ffffffffffffffffffffffffffffffffffffffff16815260200191505060405180910390f35b341561021e57600080fd5b610237600480803560ff169060200190919050506108e1565b6040518080602001828103825283818151815260200191508051906020019060200280838360005b8381101561027a57808201518184015260208101905061025f565b505050509050019250505060405180910390f35b341561029957600080fd5b6102b2600480803560ff169060200190919050506109c0565b005b6000602052816000526040600020818154811015156102cf57fe5b90600052602060002090016000915091509054906101000a900473ffffffffffffffffffffffffffffffffffffffff1681565b6000808260ff1660001115801561032d5750600160009054906101000a900460ff1660ff168360ff16105b151561033857600080fd5b6000808460ff1660ff16815260200190815260200160002090508080549050915050919050565b600160009054906101000a900460ff1681565b600081600160006101000a81548160ff021916908360ff160217905550600090505b600160009054906101000a900460ff1660ff168160ff16101561040a5760006040518059106103c05750595b90808252806020026020018201604052506000808360ff1660ff16815260200190815260200160002090805190602001906103fc929190610a57565b508080600101915050610394565b5050565b60008060008060008060008b60ff166000111580156104415750600160009054906101000a900460ff1660ff168c60ff16105b151561044c57600080fd5b60018a60ff161015151561045f57600080fd5b428911151561046d57600080fd5b7fffffffffffffffffffffffffffffffffffffffffffffffffffffffffffffffff94506000808d60ff1660ff1681526020019081526020016000209350600095505b83805490508661ffff161015610760576000848761ffff168154811015156104d357fe5b906000526020600020900160009054906101000a900473ffffffffffffffffffffffffffffffffffffffff1673ffffffffffffffffffffffffffffffffffffffff1663efbe1c1c6000604051602001526040518163ffffffff167c0100000000000000000000000000000000000000000000000000000000028152600401602060405180830381600087803b151561056a57600080fd5b6102c65a03f1151561057b57600080fd5b50505060405180519050141561059357859450610753565b838661ffff168154811015156105a557fe5b906000526020600020900160009054906101000a900473ffffffffffffffffffffffffffffffffffffffff1673ffffffffffffffffffffffffffffffffffffffff1663323046b16000604051602001526040518163ffffffff167c0100000000000000000000000000000000000000000000000000000000028152600401602060405180830381600087803b151561063c57600080fd5b6102c65a03f1151561064d57600080fd5b505050604051805190509250838661ffff1681548110151561066b57fe5b906000526020600020900160009054906101000a900473ffffffffffffffffffffffffffffffffffffffff1673ffffffffffffffffffffffffffffffffffffffff1663efbe1c1c6000604051602001526040518163ffffffff167c0100000000000000000000000000000000000000000000000000000000028152600401602060405180830381600087803b151561070257600080fd5b6102c65a03f1151561071357600080fd5b50505060405180519050915088831115801561072f5750818911155b8061074657508783111580156107455750818811155b5b15151561075257600080fd5b5b85806001019650506104af565b8b8b8b8b8b61076d610ae1565b808660ff1661ffff1681526020018581526020018460ff16815260200183815260200182815260200195505050505050604051809103906000f08015156107b357600080fd5b90507fffffffffffffffffffffffffffffffffffffffffffffffffffffffffffffffff8560010b141561085e576000808d60ff1660ff168152602001908152602001600020805480600101828161080a9190610af1565b9160005260206000209001600083909190916101000a81548173ffffffffffffffffffffffffffffffffffffffff021916908373ffffffffffffffffffffffffffffffffffffffff160217905550506108d2565b806000808e60ff1660ff1681526020019081526020016000208661ffff1681548110151561088857fe5b906000526020600020900160006101000a81548173ffffffffffffffffffffffffffffffffffffffff021916908373ffffffffffffffffffffffffffffffffffffffff1602179055505b50505050505095945050505050565b6108e9610b1d565b8160ff166000111580156109115750600160009054906101000a900460ff1660ff168260ff16105b151561091c57600080fd5b6000808360ff1660ff1681526020019081526020016000208054806020026020016040519081016040528092919081815260200182805480156109b457602002820191906000526020600020905b8160009054906101000a900473ffffffffffffffffffffffffffffffffffffffff1673ffffffffffffffffffffffffffffffffffffffff168152602001906001019080831161096a575b50505050509050919050565b6000809050600190505b6000808360ff1660ff168152602001908152602001600020805490508160ff161015610a53576000808360ff1660ff1681526020019081526020016000208160ff16815481101515610a1857fe5b906000526020600020900160006101000a81549073ffffffffffffffffffffffffffffffffffffffff021916905580806001019150506109ca565b5050565b828054828255906000526020600020908101928215610ad0579160200282015b82811115610acf5782518260006101000a81548173ffffffffffffffffffffffffffffffffffffffff021916908373ffffffffffffffffffffffffffffffffffffffff16021790555091602001919060010190610a77565b5b509050610add9190610b31565b5090565b60405161100180610b9a83390190565b815481835581811511610b1857818360005260206000209182019101610b179190610b74565b5b505050565b602060405190810160405280600081525090565b610b7191905b80821115610b6d57600081816101000a81549073ffffffffffffffffffffffffffffffffffffffff021916905550600101610b37565b5090565b90565b610b9691905b80821115610b92576000816000905550600101610b7a565b5090565b9056006060604052341561000f57600080fd5b60405160a08061100183398101604052808051906020019091908051906020019091908051906020019091908051906020019091908051906020019091905050816004819055508060058190555084600260006101000a81548161ffff021916908361ffff160217905550836003819055508260068190555033600860006101000a81548173ffffffffffffffffffffffffffffffffffffffff021916908373ffffffffffffffffffffffffffffffffffffffff16021790555060006007819055505050505050610f1c806100e56000396000f3006060604052600436106100c5576000357c0100000000000000000000000000000000000000000000000000000000900463ffffffff1680631209b1f6146100ca5780632c861bd8146100f3578063323046b11461011c57806343d726d614610145578063569e14b11461015a5780638740053b146101d95780638da5cb5b1461020a5780638ea342aa1461025f578063b85e943d146102b1578063dd60d4e314610326578063ea8a1af01461034f578063efbe1c1c14610364578063fa30b2511461038d575b600080fd5b34156100d557600080fd5b6100dd6103df565b6040518082815260200191505060405180910390f35b34156100fe57600080fd5b6101066103e5565b6040518082815260200191505060405180910390f35b341561012757600080fd5b61012f6103eb565b6040518082815260200191505060405180910390f35b341561015057600080fd5b6101586103f1565b005b341561016557600080fd5b6101b5600480803590602001908201803590602001908080601f0160208091040260200160405190810160405280939291908181526020018383808284378201915050505050509190505061057e565b604051808260018111156101c557fe5b60ff16815260200191505060405180910390f35b34156101e457600080fd5b6101ec610652565b604051808261ffff1661ffff16815260200191505060405180910390f35b341561021557600080fd5b61021d610666565b604051808273ffffffffffffffffffffffffffffffffffffffff1673ffffffffffffffffffffffffffffffffffffffff16815260200191505060405180910390f35b6102af600480803590602001908201803590602001908080601f0160208091040260200160405190810160405280939291908181526020018383808284378201915050505050509190505061068c565b005b34156102bc57600080fd5b61030c600480803590602001908201803590602001908080601f016020809104026020016040519081016040528093929190818152602001838380828437820191505050505050919050506106fc565b604051808215151515815260200191505060405180910390f35b341561033157600080fd5b6103396107c7565b6040518082815260200191505060405180910390f35b341561035a57600080fd5b6103626107cd565b005b341561036f57600080fd5b610377610a42565b6040518082815260200191505060405180910390f35b6103dd600480803590602001908201803590602001908080601f01602080910402602001604051908101604052809392919081815260200183838082843782019150505050505091905050610a48565b005b60035481565b60075481565b60045481565b60006004544211151561040357600080fd5b3373ffffffffffffffffffffffffffffffffffffffff16600860009054906101000a900473ffffffffffffffffffffffffffffffffffffffff1673ffffffffffffffffffffffffffffffffffffffff1614151561045f57600080fd5b60006005819055506000600481905550600090505b60075481101561057b5760006001600083815260200190815260200160002060405180828054600181600116156101000203166002900480156104ee5780601f106104cc5761010080835404028352918201916104ee565b820191906000526020600020905b8154815290600101906020018083116104da575b50509150509081526020016040518091039020600080820160006101000a81549073ffffffffffffffffffffffffffffffffffffffff02191690556001820160006105399190610d26565b6002820160006101000a81549060ff0219169055505060016000828152602001908152602001600020600061056e9190610d26565b8080600101915050610474565b50565b6000806000836040518082805190602001908083835b6020831015156105b95780518252602082019150602081019050602083039250610594565b6001836020036101000a0380198251168184511680821785525050505050509050019150509081526020016040518091039020905060008160000160009054906101000a900473ffffffffffffffffffffffffffffffffffffffff1673ffffffffffffffffffffffffffffffffffffffff161415151561063857600080fd5b8060020160009054906101000a900460ff16915050919050565b600260009054906101000a900461ffff1681565b600860009054906101000a900473ffffffffffffffffffffffffffffffffffffffff1681565b610697816000610a56565b600860009054906101000a900473ffffffffffffffffffffffffffffffffffffffff1673ffffffffffffffffffffffffffffffffffffffff166108fc349081150290604051600060405180830381858888f1935050505015156106f957600080fd5b50565b6000806000836040518082805190602001908083835b6020831015156107375780518252602082019150602081019050602083039250610712565b6001836020036101000a038019825116818451168082178552505050505050905001915050908152602001604051809103902090503373ffffffffffffffffffffffffffffffffffffffff168160000160009054906101000a900473ffffffffffffffffffffffffffffffffffffffff1673ffffffffffffffffffffffffffffffffffffffff1614915050919050565b60065481565b6000600454421015156107df57600080fd5b3373ffffffffffffffffffffffffffffffffffffffff16600860009054906101000a900473ffffffffffffffffffffffffffffffffffffffff1673ffffffffffffffffffffffffffffffffffffffff1614151561083b57600080fd5b60006005819055506000600481905550600090505b600754811015610a3f5760006001600083815260200190815260200160002060405180828054600181600116156101000203166002900480156108ca5780601f106108a85761010080835404028352918201916108ca565b820191906000526020600020905b8154815290600101906020018083116108b6575b5050915050908152602001604051809103902060000160009054906101000a900473ffffffffffffffffffffffffffffffffffffffff1673ffffffffffffffffffffffffffffffffffffffff166108fc6003549081150290604051600060405180830381858888f19350505050151561094257600080fd5b60006001600083815260200190815260200160002060405180828054600181600116156101000203166002900480156109b25780601f106109905761010080835404028352918201916109b2565b820191906000526020600020905b81548152906001019060200180831161099e575b50509150509081526020016040518091039020600080820160006101000a81549073ffffffffffffffffffffffffffffffffffffffff02191690556001820160006109fd9190610d26565b6002820160006101000a81549060ff02191690555050600160008281526020019081526020016000206000610a329190610d26565b8080600101915050610850565b50565b60055481565b610a53816001610a56565b50565b610a5e610d6e565b60065460075411151515610a6e57fe5b60035434141515610a7e57600080fd5b60045442101515610a8e57600080fd5b600860009054906101000a900473ffffffffffffffffffffffffffffffffffffffff1673ffffffffffffffffffffffffffffffffffffffff163373ffffffffffffffffffffffffffffffffffffffff1614151515610aeb57600080fd5b600080846040518082805190602001908083835b602083101515610b245780518252602082019150602081019050602083039250610aff565b6001836020036101000a038019825116818451168082178552505050505050905001915050908152602001604051809103902060000160009054906101000a900473ffffffffffffffffffffffffffffffffffffffff1673ffffffffffffffffffffffffffffffffffffffff16141515610b9d57600080fd5b6001600654111515610bae57600080fd5b6060604051908101604052803373ffffffffffffffffffffffffffffffffffffffff168152602001848152602001836001811115610be857fe5b8152509050806000846040518082805190602001908083835b602083101515610c265780518252602082019150602081019050602083039250610c01565b6001836020036101000a038019825116818451168082178552505050505050905001915050908152602001604051809103902060008201518160000160006101000a81548173ffffffffffffffffffffffffffffffffffffffff021916908373ffffffffffffffffffffffffffffffffffffffff1602179055506020820151816001019080519060200190610cbc929190610db7565b5060408201518160020160006101000a81548160ff02191690836001811115610ce157fe5b02179055509050508260016000600760008154809291906001019190505581526020019081526020016000209080519060200190610d20929190610e37565b50505050565b50805460018160011615610100020316600290046000825580601f10610d4c5750610d6b565b601f016020900490600052602060002090810190610d6a9190610eb7565b5b50565b606060405190810160405280600073ffffffffffffffffffffffffffffffffffffffff168152602001610d9f610edc565b815260200160006001811115610db157fe5b81525090565b828054600181600116156101000203166002900490600052602060002090601f016020900481019282601f10610df857805160ff1916838001178555610e26565b82800160010185558215610e26579182015b82811115610e25578251825591602001919060010190610e0a565b5b509050610e339190610eb7565b5090565b828054600181600116156101000203166002900490600052602060002090601f016020900481019282601f10610e7857805160ff1916838001178555610ea6565b82800160010185558215610ea6579182015b82811115610ea5578251825591602001919060010190610e8a565b5b509050610eb39190610eb7565b5090565b610ed991905b80821115610ed5576000816000905550600101610ebd565b5090565b90565b6020604051908101604052806000815250905600a165627a7a7230582041fe9e9f8a5cb2c9eefa0aa753db2ce41bbb32d2e4c9cd716a56dfd0e4a8f2270029a165627a7a7230582081492415b1dcaf71090f39e2f5014be8692b4775959d99f40a78678f35cbf5470029",
  "source": "pragma solidity ^0.4.4;\n\n\ncontract MovieEvent {\n  \n  enum TicketType{\n      \n      PRESOLD,\n      SOLD\n  }\n  \n  struct Ticket {\n    address owner;\n    string  seat;\n    TicketType t;\n  }\n  \n  mapping (string => Ticket) tickets; // tickets[owner]\n  mapping (uint   => string) index;\n  \n  uint16  public theaterId;   // ID of the movie theather\n  uint    public ticketPrice; // Price of the ticket\n  uint    public date;        // Date of the event\n  uint    public end;         // End of the event \n  uint    public nTicket;     // Number of tickets per event\n  uint    public nSoldTicket; // Number of sold ticket\n  address public owner;\n\n\n  function MovieEvent(uint16 _theaterId,   \n                      uint   _ticketPrice,\n                      uint   _nTicket,\n                      uint   _date,\n                      uint   _end\n                     ) public\n    {\n        date        = _date;\n        end         = _end;\n        theaterId   = _theaterId;\n        ticketPrice = _ticketPrice;\n        nTicket     = _nTicket;\n        owner       = msg.sender;\n        nSoldTicket = 0;\n    }\n    \n    function cancel() public {\n        \n        require(now < date);\n        require(owner == msg.sender);\n        end = 0;\n        date = 0;\n        for (uint i = 0 ; i < nSoldTicket ; i++ ){\n            tickets[index[i]].owner.transfer(ticketPrice);\n            delete tickets[index[i]];\n            delete index[i];\n        }\n    }\n    \n    function buyTicket(string seat) public payable {\n        buyTicket(seat,TicketType.SOLD);\n    }\n    \n    function buyTicket(string seat, TicketType t) internal {\n        assert(nSoldTicket <= nTicket);\n        require(msg.value == ticketPrice); // The value sent must be equal to the ticket price \n        require(now < date);            // The purchase date must be lesser than the date of the event\n        require(msg.sender != owner);      // Movie theater not allowed to buy tickets\n        require(tickets[seat].owner == 0); // unsold ticket\n        require(nTicket > 1);\n        \n        Ticket memory ticket = Ticket(msg.sender, seat, t);\n        tickets[seat] = ticket;\n        index[nSoldTicket++] = seat;\n    }\n    \n    function prebuyTicket(string seat) public payable {\n        buyTicket(seat, TicketType.PRESOLD);\n        owner.transfer(msg.value);\n    }\n    \n    function isOwner(string seat) public view returns (bool){\n        Ticket storage t = tickets[seat];\n        return  t.owner == msg.sender;\n    }\n    \n    function ticketType(string seat) public view returns (TicketType){\n        Ticket storage ticket = tickets[seat];\n        require(ticket.owner != 0);\n        return ticket.t;\n    }\n    \n    function close() public {\n        require(now > date);\n        require(owner == msg.sender);\n        end = 0;\n        date = 0;\n        for (uint i = 0 ; i < nSoldTicket ; i++ ){\n            // tickets[index[i]].owner.transfer(ticketPrice);\n            delete tickets[index[i]];\n            delete index[i];\n        }\n    }\n}\n\ncontract MovieTheater {\n  // mapping (uint8 => MovieEvent) events;\n  mapping (uint8 => MovieEvent[]) public eventsInTheater;\n  uint8 public nTheater;\n  address owner;\n\n  function MovieTheater() public {\n    owner = msg.sender;\n  }\n\n  function setNumberOfTheaters(uint8 _nTheater) public {\n    nTheater = _nTheater;\n    uint8 i;\n    for (i = 0 ; i < nTheater ; i++){\n      eventsInTheater[i] = new MovieEvent[](0);\n    }\n  }\n\n  function createEvent( uint8 theaterId,\n                        uint  ticketPrice,\n                        uint8 nTicket,\n                        uint  start,\n                        uint  end)\n  public returns (MovieEvent){\n\n    require(0 <= theaterId && theaterId < nTheater); // The ID should be correct\n    require(nTicket >= 1);\n    require(start > now);\n    uint16 i;\n    int16 j = -1;\n    MovieEvent[] storage e = eventsInTheater[theaterId];\n    \n    for (i = 0 ; i < e.length ; i++){\n      if (e[i].end() == 0) {\n        j = int16(i);\n        continue;\n      } \n      else {\n        uint _start = e[i].date();\n        uint _end   = e[i].end();\n        require(!((_start <= start && start <= _end) || \n                  (_start <= end   && end   <= _end)));\n      }\n    }\n\n    MovieEvent ev = new MovieEvent(theaterId, ticketPrice, nTicket, start, end);\n\n    if (j == -1){  \n      eventsInTheater[theaterId].push(ev);\n    } else {\n      eventsInTheater[theaterId][uint16(j)] = ev;\n    }\n  }\n\n  function getEventsInTheater(uint8 theaterId) public view returns (MovieEvent[]){\n    require(0 <= theaterId && theaterId < nTheater);\n    return eventsInTheater[theaterId];\n  }\n  function _length(uint8 theaterId) public view returns (uint){\n    require(0 <= theaterId && theaterId < nTheater);\n    MovieEvent[] storage e = eventsInTheater[theaterId];\n    return e.length;\n  }\n  \n  function clearTheater(uint8 theaterId) public {\n        uint8 i = 0;\n        for (i = 1 ; i < eventsInTheater[theaterId].length ; i++ ){\n            delete eventsInTheater[theaterId][i];\n        }\n  }\n}\n\n\n//1,18000,100,1513161000,1513171800",
  "sourcePath": "/Users/carlosspaggiari/Api/contracts/MovieTheater.sol",
  "compiler": {
    "name": "solc",
    "version": "0.4.18+commit.9cf6e910.Emscripten.clang"
  },
  "schemaVersion": "1.0.1",
  "updatedAt": "2018-01-02T03:38:10.726Z"
}